:020000040800F2
:1000000000000220392E00083D2B0008452B000877
:100010004D2B0008552B00085D2B00080000000048
:10002000000000000000000000000000652B000838
:10003000732B000800000000812B00088F2B0008A4
:10004000892E0008892E0008892E0008892E0008B4
:10005000892E0008892E0008892E0008892E0008A4
:10006000892E0008892E0008892E0008892E000894
:10007000892E0008892E0008892E0008892E000884
:10008000892E0008892E0008892E00080000000033
:10009000000000000000000000000000892E0008A1
:1000A000892E0008892E0008892E0008892E000854
:1000B000892E0008892E0008892E0008892E000844
:1000C000892E0008892E0008892E0008892E000834
:1000D000892E00089D2B0008892E000800000000D2
:1000E000892E0008892E0008892E000800000000D3
:1000F000000000000000000000000000892E000841
:1001000000000000892E0008892E0008892E0008B2
:1001100000000000000000000000000000000000DF
:10012000B12B0008892E0008C52B0008892E000875
:10013000892E000800000000000000000000000000
:10014000000000000000000000000000892E0008F0
:10015000892E0008892E0008892E0008892E0008A3
:10016000892E0008892E0008000000000000000011
:10017000000000000000000000000000000000007F
:1001800000000000892E00080000000000000000B0
:08019000892E0008892E0008E9
:1001A00010B5054C237833B9044B13B10448AFF3B1
:1001B00000800123237010BDE0010020000000003A
:1001C000D498000808B5034B1BB103490348AFF3AB
:1001D000008008BD00000000E4010020D498000861
:1001E00001F0FF01102A2BDB10F0070F08D010F8E8
:1001F000013B013A8B422DD010F0070F42B3F6D1EC
:10020000F0B441EA012141EA014122F007047FF004
:1002100000070023F0E80256083C85EA010586EA5B
:10022000010685FA47F5A3FA87F586FA47F6A5FA97
:1002300087F68EB9EED1F0BC01F0FF0102F00702A3
:1002400032B110F8013B013A83EA010313B1F8D14E
:100250000020704701387047002D06BF354603382F
:10026000073815F0010F07D1013015F4807F02BF68
:10027000013015F4C03F0130F0BC0138704700BFB9
:10028000034613F8012B002AFBD1181A01387047D6
:1002900081F0004102E000BF83F0004330B54FEA37
:1002A00041044FEA430594EA050F08BF90EA020FA4
:1002B0001FBF54EA000C55EA020C7FEA645C7FEA37
:1002C000655C00F0E2804FEA5454D4EB5555B8BF5A
:1002D0006D420CDD2C4480EA020281EA030382EACB
:1002E000000083EA010180EA020281EA0303362D5D
:1002F00088BF30BD11F0004F4FEA01314FF4801C30
:100300004CEA113102D0404261EB410113F0004F41
:100310004FEA03334CEA133302D0524263EB4303F8
:1003200094EA050F00F0A780A4F10104D5F1200E96
:100330000DDB02FA0EFC22FA05F2801841F10001F1
:1003400003FA0EF2801843FA05F359410EE0A5F1C5
:1003500020050EF1200E012A03FA0EFC28BF4CF0F6
:10036000020C43FA05F3C01851EBE37101F00045AC
:1003700007D54FF0000EDCF1000C7EEB00006EEBB9
:100380000101B1F5801F1BD3B1F5001F0CD3490843
:100390005FEA30004FEA3C0C04F101044FEA44529A
:1003A00012F5800F80F09A80BCF1004F08BF5FEA21
:1003B000500C50F1000041EB045141EA050130BD01
:1003C0005FEA4C0C404141EB0101013C28BFB1F513
:1003D000801FE9D291F0000F04BF01460020B1FA5E
:1003E00081F308BF2033A3F10B03B3F120020CDA31
:1003F0000C3208DD02F1140CC2F10C0201FA0CF00F
:1004000021FA02F10CE002F11402D8BFC2F1200C73
:1004100001FA02F120FA0CFCDCBF41EA0C01904029
:10042000E41AA2BF01EB0451294330BD6FEA040472
:100430001F3C1CDA0C340EDC04F11404C4F120025D
:1004400020FA04F001FA02F340EA030021FA04F36F
:1004500045EA030130BDC4F10C04C4F1200220FAC6
:1004600002F001FA04F340EA0300294630BD21FA04
:1004700004F0294630BD94F0000F83F4801306BFCA
:1004800081F480110134013D4EE77FEA645C18BFBE
:100490007FEA655C29D094EA050F08BF90EA020F55
:1004A00005D054EA000C04BF1946104630BD91EA4D
:1004B000030F1EBF0021002030BD5FEA545C05D150
:1004C0004000494128BF41F0004130BD14F580048F
:1004D0003CBF01F5801130BD01F0004545F0FE4103
:1004E00041F470014FF0000030BD7FEA645C1ABF38
:1004F000194610467FEA655C1CBF0B46024650EA6F
:10050000013406BF52EA033591EA030F41F400219A
:1005100030BD00BF90F0000F04BF0021704730B520
:100520004FF4806404F132044FF000054FF00001F5
:1005300050E700BF90F0000F04BF0021704730B5B6
:100540004FF4806404F1320410F0004548BF40428B
:100550004FF000013EE700BF42004FEAE2014FEAE0
:1005600031014FEA02701FBF12F07F4393F07F4FBB
:1005700081F06051704732F07F4208BF704793F0BE
:100580007F4F04BF41F40021704730B54FF46074D1
:1005900001F0004521F000411CE700BF50EA0102D4
:1005A00008BF704730B54FF000050AE050EA01027D
:1005B00008BF704730B511F0004502D5404261EBED
:1005C00041014FF4806404F132045FEA915C3FF42E
:1005D000D8AE4FF003025FEADC0C18BF03325FEACB
:1005E000DC0C18BF033202EBDC02C2F1200300FA7C
:1005F00003FC20FA02F001FA03FE40EA0E0021FAA1
:1006000002F11444BDE600BF70B54FF0FF0C4CF48E
:10061000E06C1CEA11541DBF1CEA135594EA0C0F40
:1006200095EA0C0F00F0DEF82C4481EA030621EA7B
:100630004C5123EA4C5350EA013518BF52EA0335B6
:1006400041F4801143F4801338D0A0FB02CE4FF068
:100650000005E1FB02E506F00042E0FB03E54FF098
:100660000006E1FB03569CF0000F18BF4EF0010E90
:10067000A4F1FF04B6F5007F64F5407404D25FEA8C
:100680004E0E6D4146EB060642EAC62141EA55513F
:100690004FEAC52040EA5E504FEACE2EB4F1FD0C81
:1006A00088BFBCF5E06F1ED8BEF1004F08BF5FEAFF
:1006B000500E50F1000041EB045170BD06F00046B1
:1006C00046EA010140EA020081EA0301B4EB5C045E
:1006D000C2BFD4EB0C0541EA045170BD41F4801156
:1006E0004FF0000E013C00F3AB8014F1360FDEBF7B
:1006F000002001F0004170BDC4F10004203C35DA57
:100700000C341BDC04F11404C4F1200500FA05F3D9
:1007100020FA04F001FA05F240EA020001F000427A
:1007200021F0004110EBD37021FA04F642EB0601F0
:100730005EEA430E08BF20EAD37070BDC4F10C041A
:10074000C4F1200500FA04F320FA05F001FA04F2DE
:1007500040EA020001F0004110EBD37041F10001CA
:100760005EEA430E08BF20EAD37070BDC4F12005D5
:1007700000FA05F24EEA020E20FA04F301FA05F23D
:1007800043EA020321FA04F001F0004121FA04F2E5
:1007900020EA020000EBD3705EEA430E08BF20EAB5
:1007A000D37070BD94F0000F0FD101F000464000EF
:1007B00041EB010111F4801F08BF013CF7D041EA71
:1007C000060195F0000F18BF704703F00046520075
:1007D00043EB030313F4801F08BF013DF7D043EA46
:1007E0000603704794EA0C0F0CEA135518BF95EAFC
:1007F0000C0F0CD050EA410618BF52EA4306D1D183
:1008000081EA030101F000414FF0000070BD50EAA1
:10081000410606BF1046194652EA430619D094EA2B
:100820000C0F02D150EA013613D195EA0C0F05D115
:1008300052EA03361CBF104619460AD181EA030169
:1008400001F0004141F0FE4141F470014FF0000021
:1008500070BD41F0FE4141F4780170BD70B54FF0BC
:10086000FF0C4CF4E06C1CEA11541DBF1CEA13553C
:1008700094EA0C0F95EA0C0F00F0A7F8A4EB05041E
:1008800081EA030E52EA03354FEA013100F0888015
:100890004FEA03334FF0805545EA131343EA1263DE
:1008A0004FEA022245EA111545EA10654FEA002693
:1008B0000EF000419D4208BF964244F1FD0404F54C
:1008C000407402D25B084FEA3202B61A65EB0305A8
:1008D0005B084FEA32024FF480104FF4002CB6EB65
:1008E000020E75EB030E22BFB61A754640EA0C00E5
:1008F0005B084FEA3202B6EB020E75EB030E22BF25
:10090000B61A754640EA5C005B084FEA3202B6EB65
:10091000020E75EB030E22BFB61A754640EA9C0024
:100920005B084FEA3202B6EB020E75EB030E22BFF4
:10093000B61A754640EADC0055EA060E18D04FEAB2
:10094000051545EA16754FEA06164FEAC30343EA52
:1009500052734FEAC2025FEA1C1CC0D111F4801F1F
:100960000BD141EA00014FF000004FF0004CB6E718
:1009700011F4801F04BF01430020B4F1FD0C88BFB7
:10098000BCF5E06F3FF6AFAEB5EB030C04BFB6EBC2
:10099000020C5FEA500C50F1000041EB045170BDB5
:1009A0000EF0004E4EEA113114EB5C04C2BFD4EBE2
:1009B0000C0541EA045170BD41F480114FF0000E66
:1009C000013C90E645EA060E8DE60CEA135594EAE2
:1009D0000C0F08BF95EA0C0F3FF43BAF94EA0C0FE5
:1009E0000AD150EA01347FF434AF95EA0C0F7FF45A
:1009F00025AF104619462CE795EA0C0F06D152EAAE
:100A000003353FF4FDAE1046194622E750EA410691
:100A100018BF52EA43067FF4C5AE50EA41047FF4A2
:100A20000DAF52EA43057FF4EBAE12E74FF0FF3C07
:100A300006E000BF4FF0010C02E000BF4FF0010CD8
:100A40004DF804CD4FEA410C7FEA6C5C4FEA430C51
:100A500018BF7FEA6C5C1BD001B050EA410C0CBFA0
:100A600052EA430C91EA030F02BF90EA020F002002
:100A7000704710F1000F91EA030F58BF994208BF69
:100A800090422CBFD8176FEAE37040F00100704726
:100A90004FEA410C7FEA6C5C02D150EA013C07D17D
:100AA0004FEA430C7FEA6C5CD6D152EA033CD3D0C8
:100AB0005DF8040B704700BF8446104662468C46C2
:100AC0001946634600E000BF01B5FFF7B7FF0028F5
:100AD00048BF10F1000F01BD4DF808EDFFF7F4FF1E
:100AE0000CBF012000205DF808FB00BF4DF808EDA9
:100AF000FFF7EAFF34BF012000205DF808FB00BFCC
:100B00004DF808EDFFF7E0FF94BF012000205DF8ED
:100B100008FB00BF4DF808EDFFF7CEFF94BF0120A2
:100B200000205DF808FB00BF4DF808EDFFF7C4FF9B
:100B300034BF012000205DF808FB00BF4FEA410CE4
:100B40007FEA6C5C02D150EA013C0AD14FEA430CC7
:100B50007FEA6C5C02D152EA033C02D14FF0000004
:100B600070474FF0010070474FEA410212F5001242
:100B700015D211D56FF47873B3EB625212D94FEAE4
:100B8000C12343F0004343EA505311F0004F23FACE
:100B900002F018BF404270474FF00000704750EA23
:100BA000013005D111F0004008BF6FF000407047E0
:100BB0004FF00000704700BF4FEA4102B2F1E0433E
:100BC00024BFB3F5001CDCF1FE5C0DD901F0004C34
:100BD0004FEAC0024CEA5070B2F1004F40EB830084
:100BE00008BF20F00100704711F0804F21D113F1B0
:100BF0003872BCBF01F00040704741F480114FEAE9
:100C00005252C2F11802C2F1200C10FA0CF320FA71
:100C100002F018BF40F001004FEAC1234FEAD3238E
:100C200003FA0CFC40EA0C0023FA02F34FEA4303F8
:100C3000CCE77FEA625307D150EA01331EBF4FF081
:100C4000FE4040F44000704701F0004040F0FE409C
:100C500040F40000704700BF53B94AB9002908BFEB
:100C600000281CBF4FF0FF314FF0FF3000F088B973
:100C7000ADF1080C6DE904CE00F006F8DDF804E0F3
:100C8000DDE9022304B070472DE9F047089D8E4648
:100C900004468846002B4AD18A42174662D9B2FAE6
:100CA00082F64EB1C6F1200301FA06F820FA03F3EA
:100CB000B74043EA0808B4404FEA174E1FFA87FCD2
:100CC000B8FBFEF1230C0EFB118843EA084301FB3D
:100CD0000CF29A4209D9FB1801F1FF3080F0EA804A
:100CE0009A4240F2E78002393B449A1AA3B2B2FB1F
:100CF000FEF00EFB102243EA024300FB0CFC9C4575
:100D000009D9FB1800F1FF3280F0D6809C4540F2F3
:100D1000D3803B44023840EA0140A3EB0C0300219E
:100D20001DB1F3400022C5E90032BDE8F0878B42D7
:100D300005D90DB1C5E9000100210846F5E7B3FA70
:100D400083F1002946D1734502D3824200F2058126
:100D5000841A6EEB030201209046002DE5D0C5E910
:100D60000048E2E7002A00F09080B2FA82F6002EF6
:100D700040F0A4808A1A030C4FEA174E80B2BCB22E
:100D80000121B2FBFEFC0EFB1C2243EA024304FBE2
:100D90000CF29A4207D9FB180CF1FF3802D29A42A2
:100DA00000F2E080C4469B1AB3FBFEF20EFB123346
:100DB00040EA034302FB04F49C4207D9FB1802F10A
:100DC000FF3002D29C4200F2CA8002461B1B42EA5C
:100DD0000C40A5E7C1F120068B4022FA06F71F431D
:100DE0000EFA01F420FA06F32EFA06FE4FEA17492E
:100DF000234300FA01F81FFA87FCBEFBF9F01C0C34
:100E000009FB10EE44EA0E4400FB0CFEA64502FA74
:100E100001F209D93C1900F1FF3A80F09C80A64507
:100E200040F2998002383C44A4EB0E041FFA83FE82
:100E3000B4FBF9F309FB13444EEA044403FB0CFC36
:100E4000A44508D93C1903F1FF3E80F08280A445F7
:100E50007FD9023B3C4443EA0040A4EB0C04A0FBD6
:100E600002EC64457346E14662D35FD05DB1B8EBF6
:100E7000030264EB090404FA06F622FA01F31E43A6
:100E8000CC40C5E9006400214FE7B1FBF2FC010C46
:100E900041EA0E4180B240EA01423B4638463C46B8
:100EA000B846BE462026B1FBF7F1A2EB080241EAA4
:100EB0000C4166E7014618E710462CE7C6F1200210
:100EC0002EFA02F3B740B14020FA02F24FEA174E71
:100ED0000A43B3FBFEF8BCB20EFB1833110C41EA17
:100EE000034108FB04F9B04089454FEA104380B242
:100EF0003ED9791808F1FF3C01D289451FD8A1EBF2
:100F00000901B1FBFEF909FB04F80EFB191192B2BD
:100F100042EA0142424529D2BA1809F1FF31C4D24E
:100F20004245C2D2A9F102013A44BEE7F0459DD242
:100F3000BEEB02036CEB070C0138E14696E7A7EB2A
:100F400009094944A8F1020CB1FBFEF909FB04F8B8
:100F5000DBE773467FE7504666E70846FDE63B441D
:100F6000023A33E7ACF1020C3B441CE749469CE7EC
:100F7000A1EB0901C446B1FBFEF909FB04F8C4E783
:100F8000704700BF80B500AF642001F0F1FF00F0B2
:100F90003DF900F0A9F8534B1B7819463C2000F0AE
:100FA000ABF8504B1B781946AE2000F0A5F84D4B1E
:100FB0001B781946D52000F09FF84A4B1B7819463C
:100FC000802000F099F8474B1B781946A82000F0C4
:100FD00093F8444B1B7819463F2000F08DF8414BA5
:100FE0001B781946D32000F087F83E4B1B78194632
:100FF000002000F081F83B4B1B781946402000F0A0
:101000007BF8384B1B7819468D2000F075F8354B6E
:101010001B781946142000F06FF8324B1B781946E4
:10102000202000F069F82F4B1B781946022000F0B1
:1010300063F82C4B1B781946A12000F05DF8294B72
:101040001B781946C82000F057F8264B1B78194624
:10105000DA2000F051F8234B1B781946122000F0DB
:101060004BF8204B1B781946812000F045F81D4BAA
:101070001B781946CF2000F03FF81A4B1B78194611
:10108000D92000F039F8174B1B781946F12000F0F1
:1010900033F8144B1B781946DB2000F02DF8114B68
:1010A0001B781946402000F027F80E4B1B78194694
:1010B000A42000F021F80B4B1B781946A62000F065
:1010C0001BF8084B1B781946AF2000F015F80021DB
:1010D000002000F02DF800F0D1F800F097F800BFE4
:1010E00080BD00BFFC01002080B400AF00BFBD4642
:1010F0005DF8047B7047000080B586B002AF034600
:101100000A46FB711346BB71BB793B73FB797B735A
:1011100007F10C026423009302237821034803F0B3
:101120005FFB00BF1037BD4680BD00BFB008002088
:1011300080B582B000AF03460A46FB711346BB710F
:10114000BB79503BDBB2104A127811461846FFF7C4
:10115000D3FFFB7903F00F03DBB20B4A1278114681
:101160001846FFF7C9FFFB791B09DBB243F01003F8
:10117000DBB2054A127811461846FFF7BDFF00BFE3
:101180000837BD4680BD00BFFC01002080B586B099
:1011900002AF0346FB710123FB730023BB73184BA3
:1011A0001A78184B1A700023BB7321E0BB7B1946D9
:1011B0000020FFF7BDFF124B1A78124B1A70012363
:1011C000FB7306E0FB7B0F49FA79CA54FB7B0133C2
:1011D000FB73FB7B802BF5D94FF49673009381232F
:1011E000084A7821084803F0FBFABB7B0133BB7344
:1011F000BB7B072BDAD900BF00BF1037BD4680BDCF
:101200000000002000020020B008002080B483B05D
:1012100000AF00237B6007E0094A7B68134400228B
:101220001A707B6801337B607B68B3F5806FF3D302
:1012300000BF00BF0C37BD465DF8047B704700BFA0
:101240000002002080B483B000AF00237B6007E081
:10125000094A7B681344FF221A707B6801337B6064
:101260007B68B3F5806FF3D300BF00BF0C37BD467A
:101270005DF8047B704700BF0002002080B500AF1E
:10128000FFF7C4FF00F054F800BF80BD80B5C6B0C2
:1012900002AF07F58873A3F5867318600A4607F551
:1012A0008873A3F587731A801F4B1A7807F5887324
:1012B000A3F582731A70002387F80F3115E097F8B1
:1012C0000F3107F58872A2F5867212681A4497F8F2
:1012D0000F310133117807F58872A2F58272D1546B
:1012E00097F80F31013387F80F3197F80F319BB220
:1012F00007F58872A2F5877212889A42DFD807F53F
:101300008873A3F587731B8801339BB207F10C0226
:101310000A2100917821054803F062FA00BF07F521
:101320008877BD4680BD00BF00000020B0080020C7
:1013300080B582B000AF0023FB712FE0FB79503BFA
:10134000DBB21A4A127811461846FFF7D5FE174B42
:101350001B7819460020FFF7CFFE144B1B78194667
:101360001020FFF7C9FE0023BB8009E0BA88BB88C4
:1013700001330F49895C0E4AD154BB880133BB80CD
:10138000BB887F2BF2D9FB79DB01094A134480210A
:101390001846FFF77BFFFB790133FB71FB79072BC5
:1013A000CCD900BF00BF0837BD4680BDFC0100207E
:1013B0000002002080B483B000AF0346FB800B46E0
:1013C000BB801346FB70FB78002B1AD1FA88BB88D0
:1013D000DB0898B20346DB0113441B4AD35C5AB2C4
:1013E000BB8803F00703012101FA03F35BB2134347
:1013F00059B2FA880346DB011344C9B2124AD154E8
:101400001BE0FA88BB88DB0898B20346DB01134473
:101410000D4AD35C5AB2BB8803F00703012101FADD
:1014200003F35BB2DB435BB2134059B2FA88034665
:10143000DB011344C9B2044AD15400BF0C37BD4686
:101440005DF8047B704700BF0002002090B585B0B6
:1014500000AF0446084611461A462346FB80034661
:10146000BB800B467B8013463B80B7F902300733C5
:10147000002B00DA0733DB103B810023FB7397F866
:101480002430002B0CBF01230023DBB287F824306B
:1014900097F82830012B08D197F82430002B02D17F
:1014A000FFF7B4FE01E0FFF7CDFE0023BB8144E06F
:1014B00000237B812FE07B8903F00703002B03D0FF
:1014C000FB7B5B00FB7312E0B7F90C30B7F9082027
:1014D00003FB02F2B7F90A30002B00DA0733DB1006
:1014E0001BB213441A463B6A13441B78FB7397F9EB
:1014F0000F30002B09DAFA887B8913449BB2B98834
:1015000097F824201846FFF755FFB7F90A309BB229
:1015100001339BB27B81B7F90A20B7F902309A42B6
:10152000C9DBB7F90C309BB201339BB2BB81B7F971
:1015300004309BB201339BB2BB80B7F90C20B7F9E2
:1015400000309A42B4DBFFF7F3FE00BF1437BD460C
:1015500090BD000080B586B000AF3B600346FB71D4
:101560000B46BB7113467B710023FB723B681A78F4
:101570003B6801331B7812FB03F3DBB20133DAB2B1
:101580002F4B1A703B681A782E4B1A703B68013348
:101590001B78BB727B79203BFB72FA79294B1B7855
:1015A000C3F180039A4204DD0023FB71BB79013350
:1015B000BB71BA79BB7AC3F108039A4203DD0023F9
:1015C000FB710023BB71FB7A1D4A127802FB03F307
:1015D0000333FB60FB79013BFB7100237B6123E05C
:1015E000FB790133FB71BB79FB7414E0FA7CFB7966
:1015F00011461846FFF79CFDFB685A1CFA603A68D2
:1016000013441B78104A127811461846FFF774FDF0
:10161000FB7C0133FB74FA7CB979BB7A0B449A42A8
:10162000E4DB7B6901337B61064B1B781A467B69DF
:101630009342D5D300BF00BF1837BD4680BD00BF61
:10164000FD010020FE0100200000002080B586B0D2
:1016500000AF3B600346FB710B46BB7113467B71C9
:101660000023FB723B681A783B6801331B7812FB3E
:1016700003F3DBB20133DAB2304B1A703B681A78ED
:101680002F4B1A703B6801331B78BB727B79203B70
:10169000FB72FA792A4B1B78C3F180039A4204DD6E
:1016A0000023FB71BB790133BB71BA79BB7AC3F1FB
:1016B00008039A4203DD0023FB710023BB71FB7A10
:1016C0001E4A127802FB03F30333FB60FB79013BF4
:1016D000FB7100237B6125E0FB790133FB71BB7952
:1016E000FB7416E0FA7CFB7911461846FFF720FDE3
:1016F000FB685A1CFA603A6813441B78DB43DBB280
:10170000104A127811461846FFF7F6FCFB7C0133AD
:10171000FB74FA7CB979BB7A0B449A42E2DB7B69B1
:1017200001337B61064B1B781A467B699342D3D306
:1017300000BF00BF1837BD4680BD00BFFD010020BF
:10174000FE0100200000002080B586B000AFBA6026
:101750007B600346FB730B46BB730023FB75FB7D6D
:101760005A1CFA751A46BB6813441A78B97BF87B81
:101770007B68FFF76BFF0B4B1A78FB7B1344FB7303
:10178000FB7DBA6813441B781F2B06D9FB7DBA6812
:1017900013441B785BB2002BE1DA00BF1837BD465B
:1017A00080BD00BFFE01002080B586B000AFBA60EA
:1017B0007B600346FB730B46BB730023FB75FB7D0D
:1017C0005A1CFA751A46BB6813441A78B97BF87B21
:1017D0007B68FFF7BFFE0B4B1A78FB7B1344FB7350
:1017E000FB7DBA6813441B781F2B06D9FB7DBA68B2
:1017F00013441B785BB2002BE1DA00BF1837BD46FB
:1018000080BD00BFFE01002080B500AF0B4BDB6840
:101810000A4A43F08073D360094B1B68084A43F0BF
:101820000103136003F05AFF0346064AA2FB032399
:101830009B0C054A136000BF80BD00BFF0ED00E0C7
:10184000001000E083DE1B430006002080B483B05C
:1018500000AF7860094B00225A6000BF074B5A68FE
:10186000074B1B68796801FB03F39A42F6D900BF66
:1018700000BF0C37BD465DF8047B7047001000E0E8
:101880000006002080B58CB000AF0346FB714FF01E
:1018900000024FF00003C7E90A234FF000033B6248
:1018A0004FF00003FB614FF4FA73BB6100237B62CE
:1018B0003DE00A223649374801F0C2FB0A20FFF713
:1018C000C5FFFB79324A32F8133007EE903AF8EE52
:1018D000E77A9FED317A27EE877ADFED306AC7EE3F
:1018E000267AC7ED087AFB792D4A9B001344D3ED85
:1018F000007A97ED087A77EE677AC7ED077AD7ED29
:10190000077A67EEA77A17EE900AFEF725FE0246E1
:101910000B46D7E90A01FEF7C1FC02460B46C7E9B0
:101920000A232820FFF792FF7B6A01337B627A6AE1
:10193000BB699A42BDD3B869FEF7ECFD02460B467F
:10194000D7E90A01FEF78AFF02460B46C7E90423DE
:10195000D7E90401FFF730F9034600EE103A07F02B
:1019600097FF87ED030AD7ED037A9FED0E7AF4EE29
:10197000C77AF1EE10FA02D54FF0000300E0FB68E1
:1019800007EE903AB0EE670A3037BD4680BD00BF23
:10199000CC070020080800203333534000F07F4577
:1019A000E00700200AD7233C80B500AF3D4B1B6801
:1019B000022B75D13C4B1B68012B1FD101224FF428
:1019C00000513A4802F0AEFD01224FF480713848D0
:1019D00002F0A8FD00224FF40041344802F0A2FDBD
:1019E00000224FF48041314802F09CFD31493248D9
:1019F00001F0DBF93149304801F0D7F92A4B1B6877
:101A0000022B25D100224FF40051284802F08AFD14
:101A100001224FF40041254802F084FD284B1B6849
:101A2000184601F0A5FA01224FF480411F4802F048
:101A300079FD01224FF480711D4802F073FD2149A8
:101A40001D4801F0B2F920491B4801F0AEF927E02A
:101A5000154B1B68032B23D100224FF40051134870
:101A600002F060FD01224FF40041104802F05AFDDF
:101A700041F2883001F07CFA00224FF400410B481B
:101A800002F050FD41F2883001F072FA01224FF469
:101A90000041064802F046FD0C49074801F085F96F
:101AA00000BF80BD0C060020080600200004024094
:101AB00000000240F0980008040900200099000886
:101AC000080000201499000824990008389900089B
:101AD00080B500AF2C4B1B68012B52D12B4BD3EDA3
:101AE000007A9FED2B7AF4EEC77AF1EE10FA13D458
:101AF000284BD3ED007A9FED267AF4EEC77AF1EE0B
:101B000010FA09D4244BD3ED007A9FED217AF4EE3C
:101B1000C77AF1EE10FA0AD5204B1B68022B2ED0A3
:101B20001E4B02221A60184B02221A6027E0174B44
:101B3000D3ED007A9FED167AF4EEC77AF1EE10FA43
:101B40001DDB144BD3ED007A9FED117AF4EEC77ACA
:101B5000F1EE10FA13DB104BD3ED007A9FED0C7A07
:101B6000F4EEC77AF1EE10FA09DB0C4B1B68012B7F
:101B700005D00A4B01221A60034B02221A60FFF7BC
:101B800013FF00BF80BD00BF0C0600201806002018
:101B90006F12833A1C060020200600200806002051
:101BA00080B584B004AF4FF400418B4802F0A2FC32
:101BB0000346002B17D10123029300230193874B87
:101BC00000932D232C2214210020FFF73FFC844B8F
:101BD000844A00211420FFF7B7FD834B01221A60CD
:101BE000C82001F0C5F90821804802F083FC0346B3
:101BF000002B1AD17C4B02221A607D4B00221A6006
:101C000001230293002301937A4B00932D232C226E
:101C100014210020FFF71AFC714B774A0021142091
:101C2000FFF792FDC82001F0A3F910216F4802F0E0
:101C300061FC0346002B17D16B4B03221A60012372
:101C40000293002301936D4B00932D232C2214212A
:101C50000020FFF7FBFB624B694A00211420FFF7CD
:101C600073FDC82001F084F94FF400715F4802F061
:101C700041FC0346002B1BD1594B624A05214620EB
:101C8000FFF762FD564B604A00210020FFF75CFD24
:101C9000FFF74EFBFFF7BAFAFF20FFF777FA524B38
:101CA00000221A60524B00221A60C82001F060F92D
:101CB0004FF480714D4802F01DFC0346002B40F0AC
:101CC0008780494B1B68012B0AD1FFF731FB444B3E
:101CD0004E4A01211420FFF737FD454B01221A60BF
:101CE000414B1B68022B0AD1FFF722FB3C4B474AB2
:101CF00001211420FFF728FD3D4B02221A603A4BC8
:101D00001B68032B61D1424B1B680133404A1360AF
:101D10003F4B1B68042B02DD3D4B01221A603C4BFC
:101D20001B68012B10D1FFF703FB3A4B01221A600D
:101D30002B4B394A02213220FFF706FD284B374A48
:101D400004213220FFF700FD314B1B68022B12D11A
:101D5000FFF7EEFA2F4B02221A60214B2E4A022186
:101D60003220FFF7F1FC1E4B2D4A04213220FFF7F1
:101D7000EBFCFFF719FE264B1B68032B10D1FFF776
:101D8000D7FA244B03221A60154B234A0221322032
:101D9000FFF7DAFC124B234A04213220FFF7D4FC70
:101DA0001B4B1B68042B10D1FFF7C2FA194B0422FE
:101DB0001A600B4B184A02213220FFF7C5FC084B72
:101DC000194A04213220FFF7BFFCC82001F0D0F8E7
:101DD00000BFBD4680BD00BF00000240A0B80008A3
:101DE000089A0008449900080406002000040240F4
:101DF00008060020B0B700084899000880BA00081B
:101E00005099000858990008609900086C990008DA
:101E1000040000200C060020789900088099000832
:101E200088990008909900089899000880B500AF3B
:101E30005221214805F045FC0346002B09D01E49DC
:101E40001E4800F0B2FF1E4B02221A601D4B0122F9
:101E50001A605021184805F034FC0346002B09D0C5
:101E60001549164800F0A1FF154B02221A60154BC8
:101E700002221A601449104805F030FC0346002B7A
:101E80000AD00D490D4800F090FF0D4B02221A6058
:101E90000C4B03221A600DE00C49074805F01EFCAC
:101EA0000346002B06D00449044800F07EFF084B8F
:101EB00001221A6000BF80BDB00900200409002083
:101EC0000C06002008060020A0990008A49900082C
:101ED000140600202DE9B04F8CB008AF00F0D6FFFB
:101EE00000F034FA00F0F6FB00F0CCFB00F072FBDF
:101EF00000F09EFB00F092FA00F06EFFFFF784FC0A
:101F0000FFF740F87B4B7C4A02210020FFF74CFC96
:101F10007A4B1B68184601F02BF8FFF7AFF9FF204A
:101F2000FFF734F90A227649764801F089F86420EF
:101F300001F01EF800F050FF0020FFF7A3FCF0EEC8
:101F4000407A714BC3ED007A0120FFF79BFCF0EE65
:101F5000407A6E4BC3ED007A0220FFF793FCF0EE5F
:101F6000407A6B4BC3ED007A0320FFF78BFCF0EE59
:101F7000407A684BC3ED007A0420FFF783FCF0EE53
:101F8000407A654BC3ED007A0520FFF77BFCF0EE4D
:101F9000407A624BC3ED007A0620FFF773FCF0EE47
:101FA000407A5F4BC3ED007A0720FFF76BFCF0EE41
:101FB000407A5C4BC3ED007A0820FFF763FCF0EE3B
:101FC000407A594BC3ED007A00224FF40051574834
:101FD00002F0A8FA4C4B1B681846FEF7BDFAC7E999
:101FE00000014A4B1B681846FEF7B6FA04460D4638
:101FF000474B1B681846FEF7AFFA80468946454BAB
:102000001B681846FEF7A8FA82468B46424B1B68AF
:102010001846FEF7A1FA02460B46CDE90623CDE9A4
:1020200004ABCDE90289CDE90045D7E90023404959
:10203000404805F0D9FA3F493F4800F0B6FE01227A
:102040004FF40051394802F06DFAC82000F090FFBB
:102050003A4B1B68012B34D13949374800F0A5FEB3
:1020600000224FF40051314802F05CFA0023FB7368
:1020700018E0FB7B224A32F8133007EE903AF8EE74
:10208000E77A9FED307A27EE877AFB7BDFED2E6AC9
:10209000C7EE267A2D4A9B001344C3ED007AFB7BE2
:1020A0000133FB73FB7B092BE3D9FA2000F060FFBF
:1020B00001224FF400511D4802F034FA1F4B002258
:1020C0001A60234B1B68042B6BD14FF480512148BD
:1020D00002F010FA0346002B63D11949164800F0AC
:1020E00064FE00224FF40051104802F01BFA002356
:1020F000BB734AE0ECA10008A89900080800002082
:10210000CC07002008080020180600201C0600202C
:102110002006002024060020280600202C0600208F
:102120003006002034060020380600200008024057
:10213000B09900083C060020040900201406002085
:10214000E49900083333534000F07F45E007002056
:102150001006002000000240BB7B674A32F81330B3
:1021600007EE903AF8EEE77A9FED647A27EE877AE9
:10217000BB7BDFED636AC7EE267A624A9B0013449D
:10218000C3ED007ABB7B0133BB73BB7B092BE3D967
:10219000FA2000F0EDFE01224FF400515A4802F0FF
:1021A000C1F9FFF7FDFCFFF7FFFB2021574802F0C4
:1021B000A1F90346002B6BD1012302930023019365
:1021C000534B00932D232C2214210020FFF73EF9BE
:1021D000504B1B68012B13D1FFF7AAF84E4B01227D
:1021E0001A604E4B01221A604D4B4E4A022132209A
:1021F000FFF7AAFA4A4B4C4A04213220FFF7A4FA0F
:10220000444B1B68022B0DD1FFF792F8444B454A13
:1022100002213220FFF798FA414B444A0421322030
:10222000FFF792FA3B4B1B68032B10D1FFF780F8A6
:102230003A4B03221A603A4B3A4A02213220FFF706
:1022400083FA374B3A4A04213220FFF77DFA314BAB
:102250001B68042B10D1FFF76BF8304B04221A6077
:102260002F4B304A02213220FFF76EFA2C4B314AB5
:1022700004213220FFF768FA294B2F4A002114204D
:10228000FFF762FA2D4B04221A60C82000F070FE9E
:10229000224B1B68032B0AD1294B1B78012B06D13B
:1022A000FFF7C4FD264B00221A7000F095FD1B4B72
:1022B0001B68012B01D1FFF70BFC224B1B68002B85
:1022C0007FF43AAE00224FF40051104802F02AF990
:1022D00000224FF480410D4802F024F900224FF40F
:1022E00000410A4802F01EF900224FF4807116489E
:1022F00002F018F920E600BFCC070020333353402A
:1023000000F07F45E0070020000802400004024082
:1023100090B90008040000200C06002010060020E0
:10232000089A0008789900088099000888990008A0
:102330009099000898990008009A00080406002067
:10234000B2090020080600200000024080B594B0C9
:1023500000AF07F1200330220021184605F0A9F94B
:1023600007F10C0300221A605A609A60DA601A6161
:102370000023BB60274B1B6C264A43F08053136439
:10238000244B1B6C03F08053BB60BB6800237B6055
:10239000214B1B68204A43F4404313601E4B1B68CB
:1023A00003F440437B607B6802233B620123FB62B2
:1023B00010233B630223BB630023FB6308233B64BE
:1023C00064237B640223BB640423FB6407F12003C2
:1023D000184602F05FFD0346002B01D000F022FA00
:1023E0000F23FB6002233B6100237B614FF480538A
:1023F000BB610023FB6107F10C030321184602F0C7
:10240000C1FF0346002B01D000F00CFA00BF50378B
:10241000BD4680BD003802400070004080B584B0E9
:1024200000AF3B4600221A605A609A60DA60664B41
:10243000664A1A60644B4FF480325A60624B002245
:102440009A60614B01221A615F4B00221A765E4B43
:10245000002283F820205C4B0022DA625A4B5C4A4F
:102460009A62594B0022DA60574B0A22DA61564BC6
:10247000002283F83020544B01225A61524800F068
:102480009BFD0346002B01D000F0CCF900233B60FC
:1024900001237B600323BB603B4619464A4800F09A
:1024A000E1FE0346002B01D000F0BCF901233B60A4
:1024B00002237B600723BB603B461946424800F07D
:1024C000D1FE0346002B01D000F0ACF902233B60A3
:1024D00003237B600323BB603B4619463A4800F068
:1024E000C1FE0346002B01D000F09CF903233B60A2
:1024F00004237B600723BB603B461946324800F04B
:10250000B1FE0346002B01D000F08CF904233B60A0
:1025100005237B603B4619462B4800F0A3FE03468B
:10252000002B01D000F07EF905233B6006237B6081
:102530000323BB603B461946234800F093FE034645
:10254000002B01D000F06EF906233B6007237B606F
:102550000723BB603B4619461B4800F083FE034639
:10256000002B01D000F05EF907233B6008237B605D
:102570003B461946144800F075FE0346002B01D077
:1025800000F050F908233B6009237B603B46194665
:102590000D4800F067FE0346002B01D000F042F921
:1025A00009233B600A237B600323BB603B4619463B
:1025B000054800F057FE0346002B01D000F032F929
:1025C00000BF1037BD4680BD080800200020014034
:1025D0000100000F80B500AF124B134A1A60114B77
:1025E000124A5A600F4B00229A600E4B0022DA60AA
:1025F0000C4B4FF480421A610A4B00225A61094B7E
:1026000000229A61074B0022DA61064B00221A620F
:10261000044801F0A1FF0346002B01D000F002F9AD
:1026200000BF80BDB008002000540040801A0600A2
:1026300080B500AF114B124A1A60104B4FF416527E
:102640005A600E4B00229A600C4B0022DA600B4B52
:1026500000221A61094B0C225A61084B00229A6130
:10266000064B0022DA61054803F06CF80346002BA4
:1026700001D000F0D7F800BF80BD00BF04090020E2
:102680000010014080B582B000AF00237B60104B8A
:102690001B6B0F4A43F4800313630D4B1B6B03F456
:1026A00080037B607B6800220021382001F065F9FF
:1026B000382001F07EF9002200213A2001F05DF976
:1026C0003A2001F076F900BF0837BD4680BD00BF53
:1026D0000038024080B58AB000AF07F11403002231
:1026E0001A605A609A60DA601A6100233B61494BB4
:1026F0001B6B484A43F004031363464B1B6B03F008
:1027000004033B613B690023FB60424B1B6B414A66
:1027100043F0800313633F4B1B6B03F08003FB60AC
:10272000FB680023BB603B4B1B6B3A4A43F0010341
:102730001363384B1B6B03F00103BB60BB680023C2
:102740007B60344B1B6B334A43F002031363314B02
:102750001B6B03F002037B607B6801224FF4005186
:102760002D4801F0DFFE00224FF460412B4801F0BC
:10277000D9FE00224FF48071294801F0D3FE4FF4B6
:1027800000537B610123BB610023FB6100233B629B
:1027900007F114031946204801F028FD4FF4604367
:1027A0007B610123BB610023FB6100233B6207F1D6
:1027B00014031946194801F019FD4FF480737B6129
:1027C0000123BB610023FB6100233B6207F114037B
:1027D0001946134801F00AFD4FF418437B610023AA
:1027E000BB610123FB6107F1140319460C4801F09A
:1027F000FDFC4FF44E737B610023BB610123FB6141
:1028000007F114031946054801F0F0FC00BF283712
:10281000BD4680BD0038024000080240000402406E
:102820000000024080B400AF72B600BF00BFFDE7F9
:1028300080B483B000AF00237B60104B5B6C0F4A09
:1028400043F4804353640D4B5B6C03F480437B6023
:102850007B6800233B60094B1B6C084A43F08053A4
:102860001364064B1B6C03F080533B603B6800BF56
:102870000C37BD465DF8047B704700BF003802404E
:1028800080B58AB000AF786007F1140300221A60A7
:102890005A609A60DA601A617B681B683C4A93420E
:1028A00071D100233B613B4B5B6C3A4A43F480732C
:1028B0005364384B5B6C03F480733B613B690023CA
:1028C000FB60344B1B6B334A43F001031363314B02
:1028D0001B6B03F00103FB60FB680023BB602D4B07
:1028E0001B6B2C4A43F0020313632A4B1B6B03F050
:1028F0000203BB60BB68FF237B610323BB61002332
:10290000FB6107F114031946234801F06FFC032310
:102910007B610323BB610023FB6107F114031946AC
:102920001E4801F063FC1E4B1E4A1A601C4B00221D
:102930005A601B4B00229A60194B0022DA60184B38
:102940004FF480621A61164B4FF400625A61144BC7
:102950004FF400529A61124B4FF48072DA61104BBF
:1029600000221A620E4B00225A620D4801F03CF818
:102970000346002B01D0FFF755FF7B68084A9A6396
:10298000074A7B68936300BF2837BD4680BD00BF00
:1029900000200140003802400000024000040240D4
:1029A000500800201064024080B58AB000AF786003
:1029B00007F1140300221A605A609A60DA601A6103
:1029C0007B681B68194A93422BD100233B61184B4B
:1029D0001B6B174A43F002031363154B1B6B03F089
:1029E00002033B613B69C0237B611223BB6100236F
:1029F000FB6103233B6204237B6207F11403194646
:102A00000C4801F0F3FB0023FB60094B1B6C084AE8
:102A100043F400131364064B1B6C03F40013FB60B8
:102A2000FB6800BF2837BD4680BD00BF0054004092
:102A3000003802400004024080B58AB000AF7860E0
:102A400007F1140300221A605A609A60DA601A6172
:102A50007B681B68344A934262D100233B61334B4D
:102A60005B6C324A43F010035364304B5B6C03F0F1
:102A700010033B613B690023FB602C4B1B6B2B4A13
:102A800043F001031363294B1B6B03F00103FB604D
:102A9000FB684FF4C0637B610223BB610023FB61D1
:102AA00003233B6207237B6207F114031946204886
:102AB00001F09CFB1F4B204A1A601E4B4FF0006236
:102AC0005A601C4B00229A601A4B0022DA60194BA4
:102AD0004FF480621A61174B00225A61154B002295
:102AE0009A61144B0022DA61124B00221A62114BD8
:102AF00000225A620F4800F077FF0346002B01D0F6
:102B0000FFF790FE7B680B4ADA630A4A7B6893639F
:102B100000220021252000F030FF252000F049FF91
:102B200000BF2837BD4680BD00100140003802407C
:102B3000000002404C0900204064024080B400AF15
:102B400000BFFDE780B400AF00BFFDE780B400AF79
:102B500000BFFDE780B400AF00BFFDE780B400AF69
:102B600000BFFDE780B400AF00BFBD465DF8047B49
:102B7000704780B400AF00BFBD465DF8047B70476E
:102B800080B400AF00BFBD465DF8047B704780B5E0
:102B900000AF00F0CDF900BF80BD000080B500AFF0
:102BA000024802F003FF00BF80BD00BF04090020FF
:102BB00080B500AF024801F0AFF800BF80BD00BF94
:102BC0005008002080B500AF024801F0A5F800BF12
:102BD00080BD00BF4C09002080B400AF012318461F
:102BE000BD465DF8047B704780B582B000AF786069
:102BF000396004F0D3FD034616221A604FF0FF330C
:102C000018460837BD4680BD80B582B000AF7860F9
:102C10004FF0FF317868FFF7E7FF00BFFDE780B5B1
:102C200086B000AFF860B9607A6000237B610AE08B
:102C3000AFF300800146BB685A1CBA60CAB21A7072
:102C40007B6901337B617A697B689A42F0DB7B6840
:102C500018461837BD4680BD80B586B000AFF86015
:102C6000B9607A6000237B6109E0BB685A1CBA60D6
:102C70001B781846AFF300807B6901337B617A696A
:102C80007B689A42F1DB7B6818461837BD4680BDE9
:102C900080B483B000AF78604FF0FF3318460C3734
:102CA000BD465DF8047B704780B483B000AF7860A8
:102CB00039603B684FF400525A60002318460C37C5
:102CC000BD465DF8047B704780B483B000AF786088
:102CD000012318460C37BD465DF8047B704780B46D
:102CE00085B000AFF860B9607A60002318461437E9
:102CF000BD465DF8047B704780B586B000AF786054
:102D0000144A154BD31A7B617B693B61134B1B68DB
:102D1000002B02D1114B124A1A60104B1A687B68C3
:102D200013443A699A4207D204F038FD03460C2254
:102D30001A604FF0FF3309E0084B1B68FB60074B3C
:102D40001A687B681344054A1360FB6818461837F5
:102D5000BD4680BD0000022000040000AC09002038
:102D6000080B002080B400AF064BD3F88830054A2A
:102D700043F47003C2F8883000BFBD465DF8047BA1
:102D8000704700BF00ED00E080B582B000AF786012
:102D90000B46FB70F91C4FF6FF730122786802F0B6
:102DA00021FD00BF0837BD4680BD80B582B000AFB1
:102DB0007860396007E03B685A1C3A601B78194616
:102DC0007868FFF7E1FF3B681B78002BF3D100BF69
:102DD00000BF0837BD4680BD80B500AF022200218C
:102DE000044804F066FC02220249034802F085FD13
:102DF00000BF80BDB00900200409002080B483B06A
:102E000000AF78600B467B807B681B68074A934263
:102E100005D1074A7B881380064B01221A7000BF38
:102E20000C37BD465DF8047B704700BF00100140C1
:102E3000B4090020B2090020DFF834D0FFF792FF78
:102E40000C480D490D4A002302E0D458C450043305
:102E5000C4188C42F9D30A4A0A4C002301E01360DB
:102E60000432A242FBD304F09FFCFFF733F8704713
:102E70000000022000000020E001002014BF000834
:102E8000E0010020080B0020FEE7000080B500AF45
:102E90000E4B1B680D4A43F4007313600B4B1B6809
:102EA0000A4A43F480631360084B1B68074A43F4E3
:102EB00080731360032000F055FD0F2000F008F828
:102EC000FFF7B6FC0023184680BD00BF003C02405F
:102ED00080B582B000AF7860124B1A68124B1B7835
:102EE00019464FF47A73B3FBF1F3B2FBF3F31846D0
:102EF00000F06DFD0346002B01D001230EE07B683E
:102F00000F2B0AD8002279684FF0FF3000F035FD12
:102F1000064A7B681360002300E001231846083747
:102F2000BD4680BD0C0000201400002010000020D1
:102F300080B400AF064B1B781A46064B1B6813443F
:102F4000044A136000BFBD465DF8047B704700BFB4
:102F500014000020B809002080B400AF034B1B68A8
:102F60001846BD465DF8047B704700BFB8090020D5
:102F700080B584B000AF7860FFF7EEFFB8607B6883
:102F8000FB60FB68B3F1FF3F05D00A4B1B781A4684
:102F9000FB681344FB6000BFFFF7DEFF0246BB681F
:102FA000D31AFA689A42F7D800BF00BF1037BD465F
:102FB00080BD00BF1400002080B584B000AF7860F1
:102FC0000023FB737B68002B01D1012333E07B6876
:102FD0001B6C002B09D17868FFF752FC7B6800223C
:102FE0005A647B68002283F83C207B681B6C03F0EA
:102FF0001003002B18D17B681B6C23F4885323F03B
:10300000020343F002027B681A64786800F05CFAFD
:103010007B6800225A647B681B6C23F0030343F037
:1030200001027B681A6401E00123FB737B680022C4
:1030300083F83C20FB7B18461037BD4680BD00005E
:1030400080B588B000AFF860B9607A6000237B611A
:103050000023FB77FB6893F83C30012B01D102235E
:10306000D0E0FB68012283F83C20FB681B689B686A
:1030700003F00103012B18D0FB681B689A68FB68FA
:103080001B6842F001029A60604B1B68604AA2FB19
:1030900003239A0C13465B0013447B6102E07B69B7
:1030A000013B7B617B69002BF9D1FB681B689B6846
:1030B00003F48073B3F5807F07D1FB681B689A68BF
:1030C000FB681B6822F480729A60FB681B689B682F
:1030D00003F00103012B40F08880FB681B6C23F494
:1030E000E06323F0010343F48072FB681A64FB6819
:1030F0001B685B6803F48063002B07D0FB681B6CC4
:1031000023F4405343F48052FB681A64FB681B6C41
:1031100003F48053B3F5805F06D1FB685B6C23F04A
:103120000602FB685A6402E0FB6800225A64FB68EE
:10313000002283F83C20374BBB61FB689B6B364A0F
:10314000DA63FB689B6B354A1A64FB689B6B344AF5
:10315000DA64FB681B686FF022021A60FB681B6868
:103160005A68FB681B6842F080625A60FB681B6803
:103170009A68FB681B6842F480729A60FB68986BDF
:10318000FB681B684C331946BA687B6800F0DAFCB0
:103190000346FB77BB695B6803F01F03002B0FD16D
:1031A000FB681B689B6803F04053002B29D1FB6828
:1031B0001B689A68FB681B6842F080429A6020E0B6
:1031C000FB681B68174A93421BD1FB681B689B680E
:1031D00003F04053002B14D1FB681B689A68FB680E
:1031E0001B6842F080429A600BE0FB681B6C43F066
:1031F0001002FB681A64FB685B6C43F00102FB6819
:103200005A64FB7F18462037BD4680BD0C00002065
:1032100083DE1B4300230140C13600087B370008D2
:10322000973700080020014080B483B000AF786079
:1032300000BF0C37BD465DF8047B704780B483B097
:1032400000AF786000BF0C37BD465DF8047B704767
:1032500080B483B000AF786000BF0C37BD465DF826
:10326000047B704780B485B000AF7860396000237C
:10327000BB607B6893F83C30012B01D1022313E142
:103280007B68012283F83C203B681B68092B25D909
:103290007B681B68D9683B681B689BB21A4613465B
:1032A0005B0013441E3B072202FA03F3DA437B68F8
:1032B0001B680A40DA607B681B68D9683B689A68BB
:1032C0003B681B689BB2184603465B0003441E3BE9
:1032D0009A407B681B680A43DA6022E07B681B68BF
:1032E00019693B681B689BB21A4613465B0013447E
:1032F000072202FA03F3DA437B681B680A401A616B
:103300007B681B6819693B689A683B681B689BB2BD
:10331000184603465B0003449A407B681B680A43D7
:103320001A613B685B68062B24D87B681B68596B65
:103330003B685A6813469B001344053B1F2202FA60
:1033400003F3DA437B681B680A405A637B681B6897
:10335000596B3B681B689BB218463B685A6813461A
:103360009B001344053B00FA03F27B681B680A4389
:103370005A634CE03B685B680C2B24D87B681B6865
:10338000196B3B685A6813469B001344233B1F226A
:1033900002FA03F3DA437B681B680A401A637B680E
:1033A0001B68196B3B681B689BB218463B685A68E0
:1033B00013469B001344233B00FA03F27B681B680F
:1033C0000A431A6323E07B681B68D96A3B685A6822
:1033D00013469B001344413B1F2202FA03F3DA43D6
:1033E0007B681B680A40DA627B681B68D96A3B68A5
:1033F0001B689BB218463B685A6813469B001344EF
:10340000413B00FA03F27B681B680A43DA62294BEE
:10341000FB607B681B68284A93420FD13B681B689E
:10342000122B0BD1FB685B6823F40002FB685A6027
:10343000FB685B6843F48002FB685A607B681B682A
:103440001D4A93422BD13B681B681C4A934203D010
:103450003B681B68112B22D1FB685B6823F4800258
:10346000FB685A60FB685B6843F40002FB685A60C3
:103470003B681B68114A934211D1114B1B68114ADA
:10348000A2FB03239A0C13469B0013445B00BB6012
:1034900002E0BB68013BBB60BB68002BF9D17B68D5
:1034A000002283F83C20002318461437BD465DF8FF
:1034B000047B7047002301400020014012000010EF
:1034C0000C00002083DE1B4380B485B000AF786021
:1034D000794BFB60FB685B6823F44032FB685A6001
:1034E000FB685A687B685B681A43FB685A607B68B4
:1034F0001B685A687B681B6822F480725A607B687C
:103500001B6859687B681B691A027B681B680A4341
:103510005A607B681B685A687B681B6822F040729F
:103520005A607B681B6859687B689A687B681B686F
:103530000A435A607B681B689A687B681B6822F4A0
:1035400000629A607B681B6899687B68DA687B68B0
:103550001B680A439A607B689B6A584A934222D050
:103560007B681B689A687B681B6822F070629A60AF
:103570007B681B6899687B689A6A7B681B680A434A
:103580009A607B681B689A687B681B6822F04052CF
:103590009A607B681B6899687B68DA6A7B681B683D
:1035A0000A439A600FE07B681B689A687B681B6817
:1035B00022F070629A607B681B689A687B681B685F
:1035C00022F040529A607B681B689A687B681B688F
:1035D00022F002029A607B681B6899687B681B7EF8
:1035E0005A007B681B680A439A607B6893F8203016
:1035F000002B1BD07B681B685A687B681B6842F4F1
:1036000000625A607B681B685A687B681B6822F4FA
:1036100060425A607B681B6859687B685B6A013B43
:103620005A037B681B680A435A6007E07B681B6883
:103630005A687B681B6822F400625A607B681B68CA
:10364000DA6A7B681B6822F47002DA627B681B68A6
:10365000D96A7B68DB69013B1A057B681B680A43F2
:10366000DA627B681B689A687B681B6822F40072C8
:103670009A607B681B6899687B6893F830305A02BF
:103680007B681B680A439A607B681B689A687B6842
:103690001B6822F480629A607B681B6899687B686B
:1036A0005B699A027B681B680A439A6000BF143703
:1036B000BD465DF8047B7047002301400100000F08
:1036C00080B584B000AF78607B689B6BFB60FB6863
:1036D0001B6C03F05003002B3CD1FB681B6C43F4C4
:1036E0000072FB681A64FB681B689B6803F0405318
:1036F000002B2BD1FB681B7E002B27D1FB681B689E
:10370000DB6A03F47003002B06D0FB681B689B6820
:1037100003F48063002B19D1FB681B685A68FB68AF
:103720001B6822F020025A60FB681B6C23F4807235
:10373000FB681A64FB681B6C03F48053002B05D1F3
:10374000FB681B6C43F00102FB681A64F868FFF722
:103750006BFD0EE0FB681B6C03F01003002B03D025
:10376000F868FFF775FD04E0FB689B6BDB6C78681D
:10377000984700BF1037BD4680BD80B584B000AF0C
:1037800078607B689B6BFB60F868FFF757FD00BFB4
:103790001037BD4680BD80B584B000AF78607B68CF
:1037A0009B6BFB60FB6840221A64FB685B6C43F018
:1037B0000402FB685A64F868FFF74AFD00BF10373F
:1037C000BD4680BD80B485B000AF78607B6803F0F3
:1037D0000703FB600C4BDB68BB60BA684FF6FF0366
:1037E0001340BB60FB681A02BB68134343F0BF631E
:1037F00043F40033BB60044ABB68D36000BF143796
:10380000BD465DF8047B704700ED00E080B400AF7A
:10381000044BDB681B0A03F007031846BD465DF83E
:10382000047B704700ED00E080B483B000AF034636
:10383000FB7197F90730002B0BDBFB7903F01F02BC
:10384000074997F907305B09012000FA02F241F8B5
:10385000232000BF0C37BD465DF8047B704700BFD6
:1038600000E100E080B483B000AF03463960FB7133
:1038700097F90730002B0ADB3B68DAB20C4997F95D
:1038800007301201D2B20B4483F800230AE03B68F0
:10389000DAB20849FB7903F00F03043B1201D2B2FC
:1038A0000B441A7600BF0C37BD465DF8047B7047A9
:1038B00000E100E000ED00E080B489B000AFF86006
:1038C000B9607A60FB6803F00703FB61FB69C3F131
:1038D0000703042B28BF0423BB61FB690433062BB9
:1038E00002D9FB69033B00E000237B614FF0FF320C
:1038F000BB6902FA03F3DA43BB681A407B699A405A
:103900004FF0FF317B6901FA03F3D9437B680B4029
:10391000134318462437BD465DF8047B704700000A
:1039200080B582B000AF78607B68013BB3F1807FE7
:1039300001D301230FE00A4A7B68013B53600F214A
:103940004FF0FF30FFF78EFF054B00229A60044BCB
:1039500007221A60002318460837BD4680BD00BF05
:1039600010E000E080B582B000AF78607868FFF7C3
:1039700029FF00BF0837BD4680BD80B586B000AFC7
:103980000346B9607A60FB7300237B61FFF73EFF5B
:1039900078617A68B9687869FFF78EFF024697F90F
:1039A0000F3011461846FFF75DFF00BF1837BD46C0
:1039B00080BD80B582B000AF0346FB7197F9073038
:1039C0001846FFF731FF00BF0837BD4680BD80B500
:1039D00082B000AF78607868FFF7A2FF0346184610
:1039E0000837BD4680BD000080B586B000AF786066
:1039F00000237B61FFF7B0FA38617B68002B01D1AF
:103A0000012399E07B68022283F835207B6800223D
:103A100083F834207B681B681A687B681B6822F077
:103A200001021A600FE0FFF797FA02463B69D31ACA
:103A3000052B08D97B6820225A657B68032283F80E
:103A40003520032378E07B681B681B6803F00103C3
:103A5000002BE8D17B681B681B687B617A69384B57
:103A600013407B617B685A687B689B681A437B685C
:103A7000DB681A437B681B691A437B685B691A43DE
:103A80007B689B691A437B68DB691A437B681B6A06
:103A900013437A6913437B617B685B6A042B07D10C
:103AA0007B68DA6A7B681B6B13437A6913437B611B
:103AB0007B681B687A691A607B681B685B697B613D
:103AC0007B6923F007037B617B685B6A7A69134338
:103AD0007B617B685B6A042B17D17B689B6A7A6980
:103AE00013437B617B68DB6A002B0ED0786800F0A3
:103AF00001FB0346002B08D07B6840225A657B6897
:103B0000012283F83520012316E07B681B687A695F
:103B10005A61786800F0B8FA0346FB607B68DB6D99
:103B20003F229A40FB689A607B6800225A657B6856
:103B3000012283F83520002318461837BD4680BD82
:103B40003F8010F080B586B000AFF860B9607A6051
:103B50003B600023FB75FB689B6D3B61FB6893F842
:103B60003430012B01D1022340E0FB68012283F8AD
:103B70003420FB6893F83530DBB2012B2FD1FB6882
:103B8000022283F83520FB6800225A653B687A6878
:103B9000B968F86800F04AFAFB68DB6D3F229A408A
:103BA0003B699A60FB681B681A68FB681B6842F0F7
:103BB00016021A60FB681B6C002B07D0FB681B68A1
:103BC0001A68FB681B6842F008021A60FB681B68F1
:103BD0001A68FB681B6842F001021A6005E0FB6886
:103BE000002283F834200223FB75FB7D184618372A
:103BF000BD4680BD80B584B000AF78607B689B6DAA
:103C0000FB60FFF7A9F9B8607B6893F83530DBB249
:103C1000022B08D07B6880225A657B68002283F8DB
:103C20003420012352E07B681B681A687B681B689C
:103C300022F016021A607B681B685A697B681B6851
:103C400022F080025A617B681B6C002B03D17B68D9
:103C50009B6C002B07D07B681B681A687B681B680D
:103C600022F008021A607B681B681A687B681B6870
:103C700022F001021A6013E0FFF76EF90246BB68FA
:103C8000D31A052B0CD97B6820225A657B68032246
:103C900083F835207B68002283F83420032315E065
:103CA0007B681B681B6803F00103002BE4D17B6871
:103CB000DB6D3F229A40FB689A607B68012283F8A3
:103CC00035207B68002283F8342000231846103703
:103CD000BD4680BD80B483B000AF78607B6893F848
:103CE0003530DBB2022B04D07B6880225A65012379
:103CF0000CE07B68052283F835207B681B681A6816
:103D00007B681B6822F001021A60002318460C37FA
:103D1000BD465DF8047B704780B586B000AF786023
:103D20000023BB608E4B1B688E4AA2FB03239B0AB9
:103D30007B617B689B6D3B613B691B68FB607B68BB
:103D4000DB6D08229A40FB681340002B1AD07B6879
:103D50001B681B6803F00403002B13D07B681B68EF
:103D60001A687B681B6822F004021A607B68DB6DAE
:103D700008229A403B699A607B685B6D43F00102C0
:103D80007B685A657B68DB6D01229A40FB681340B3
:103D9000002B12D07B681B685B6903F08003002B4B
:103DA0000BD07B68DB6D01229A403B699A607B688F
:103DB0005B6D43F002027B685A657B68DB6D042211
:103DC0009A40FB681340002B12D07B681B681B686D
:103DD00003F00203002B0BD07B68DB6D04229A40BA
:103DE0003B699A607B685B6D43F004027B685A65AF
:103DF0007B68DB6D10229A40FB681340002B43D098
:103E00007B681B681B6803F00803002B3CD07B68B1
:103E1000DB6D10229A403B699A607B681B681B68C7
:103E200003F48023002B18D07B681B681B6803F405
:103E30000023002B08D17B681B6C002B24D07B68EF
:103E40001B6C786898471FE07B689B6C002B1BD02D
:103E50007B689B6C7868984716E07B681B681B68DA
:103E600003F48073002B07D17B681B681A687B689A
:103E70001B6822F008021A607B681B6C002B03D0C1
:103E80007B681B6C786898477B68DB6D20229A40C2
:103E9000FB681340002B00F08F807B681B681B6859
:103EA00003F01003002B00F087807B68DB6D20227D
:103EB0009A403B699A607B6893F83530DBB2052BFA
:103EC00036D17B681B681A687B681B6822F0160273
:103ED0001A607B681B685A697B681B6822F0800245
:103EE0005A617B681B6C002B03D17B689B6C002B99
:103EF00007D07B681B681A687B681B6822F0080281
:103F00001A607B68DB6D3F229A403B699A607B6850
:103F1000012283F835207B68002283F834207B68F7
:103F20001B6D002B7ED07B681B6D7868984779E00D
:103F30007B681B681B6803F48023002B1DD07B6803
:103F40001B681B6803F40023002B0DD17B685B6C9E
:103F5000002B31D07B685B6C786898472CE000BF01
:103F60000C000020B5814E1B7B68DB6B002B23D03F
:103F70007B68DB6B786898471EE07B681B681B6872
:103F800003F48073002B0FD17B681B681A687B6871
:103F90001B6822F010021A607B68012283F835202A
:103FA0007B68002283F834207B68DB6B002B03D016
:103FB0007B68DB6B786898477B685B6D002B32D041
:103FC0007B685B6D03F00103002B22D07B68052228
:103FD00083F835207B681B681A687B681B6822F0B1
:103FE00001021A60BB680133BB607A699A4207D349
:103FF0007B681B681B6803F00103002BF2D100E013
:1040000000BF7B68012283F835207B68002283F89B
:1040100034207B68DB6C002B05D07B68DB6C786818
:10402000984700E000BF1837BD4680BD80B485B01A
:1040300000AFF860B9607A603B60FB681B681A6883
:10404000FB681B6822F480221A60FB681B683A68D0
:104050005A60FB689B68402B08D1FB681B687A6834
:104060009A60FB681B68BA68DA6007E0FB681B6847
:10407000BA689A60FB681B687A68DA6000BF143718
:10408000BD465DF8047B704780B485B000AF7860B2
:104090007B681B68DBB2103B144AA2FB03231B099D
:1040A000FB60134AFB6813441B781A467B68DA6589
:1040B000FB68032B09D97B681B6823F47F7323F00B
:1040C00003031A1D7B689A6507E07B681B6823F46D
:1040D0007F7323F003037A6893657B689B6D1846B2
:1040E0001437BD465DF8047B704700BFABAAAAAA8F
:1040F00088BB000880B485B000AF78600023FB73F4
:104100007B689B6ABB607B689B69002B1FD1BB6887
:10411000032B56D801A252F823F000BF2D4100080E
:104120003F4100082D410008C34100087B68DB6A5D
:1041300003F08073002B46D00123FB7343E07B68C0
:10414000DB6AB3F1C07F40D10123FB733DE07B68A4
:104150009B69B3F5005F21D1BB68032B37D801A25F
:1041600052F823F0754100087B41000875410008B2
:104170008D4100080123FB7330E07B68DB6A03F0AC
:104180008073002B25D00123FB7322E07B68DB6A60
:10419000B3F1C07F1FD10123FB731CE0BB68022B6E
:1041A00003D9BB68032B03D018E00123FB7315E090
:1041B0007B68DB6A03F08073002B0ED00123FB7356
:1041C0000BE000BF0AE000BF08E000BF06E000BF50
:1041D00004E000BF02E000BF00E000BFFB7B184628
:1041E0001437BD465DF8047B704700BF80B489B0CA
:1041F00000AF7860396000237B6100233B610023BE
:10420000BB610023FB6159E10122FB6902FA03F360
:104210007B613B681B687A6913403B613A697B6943
:104220009A4240F048813B685B6803F00303012B2E
:1042300005D03B685B6803F00303022B30D17B6839
:104240009B68BB61FB695B00032202FA03F3DB435B
:10425000BA691340BB613B68DA68FB695B0002FA2C
:1042600003F3BA691343BB617B68BA699A607B68E0
:104270005B68BB610122FB6902FA03F3DB43BA69A5
:104280001340BB613B685B681B0903F00102FB69DB
:1042900002FA03F3BA691343BB617B68BA695A60D7
:1042A0003B685B6803F00303032B17D07B68DB6874
:1042B000BB61FB695B00032202FA03F3DB43BA69CB
:1042C0001340BB613B689A68FB695B0002FA03F329
:1042D000BA691343BB617B68BA69DA603B685B68A3
:1042E00003F00303022B23D1FB69DA087B68083251
:1042F00053F82230BB61FB6903F007039B000F22D8
:1043000002FA03F3DB43BA691340BB613B681A69E5
:10431000FB6903F007039B0002FA03F3BA69134336
:10432000BB61FB69DA087B680832B96943F822107F
:104330007B681B68BB61FB695B00032202FA03F325
:10434000DB43BA691340BB613B685B6803F003025F
:10435000FB695B0002FA03F3BA691343BB617B6834
:10436000BA691A603B685B6803F44033002B00F0C5
:10437000A2800023FB60574B5B6C564A43F480439A
:104380005364544B5B6C03F48043FB60FB68524AFC
:10439000FB699B08023352F82330BB61FB6903F0D1
:1043A00003039B000F2202FA03F3DB43BA691340B5
:1043B000BB617B68494A934219D07B68484A934263
:1043C00013D07B68474A93420DD07B68464A93429C
:1043D00007D07B68454A934201D1042308E00723B4
:1043E00006E0032304E0022302E0012300E00023AF
:1043F000FA6902F0030292009340BA691343BB6169
:104400003549FB699B080233BA6941F82320384BD0
:104410009B68BB613B69DB43BA691340BB613B6886
:104420005B6803F48013002B03D0BA693B69134324
:10443000BB612F4ABB6993602D4BDB68BB613B6955
:10444000DB43BA691340BB613B685B6803F400134C
:10445000002B03D0BA693B691343BB61244ABB6993
:10446000D360234B5B68BB613B69DB43BA69134094
:10447000BB613B685B6803F40033002B03D0BA696F
:104480003B691343BB611A4ABB695360184B1B68F5
:10449000BB613B69DB43BA691340BB613B685B6846
:1044A00003F48033002B03D0BA693B691343BB612B
:1044B0000F4ABB691360FB690133FB61FB690F2B7A
:1044C0007FF6A2AE00BF00BF2437BD465DF8047B77
:1044D000704700BF00380240003801400000024031
:1044E0000004024000080240000C0240001002409C
:1044F000003C014080B485B000AF78600B467B8003
:104500007B681A697B881340002B02D00123FB7360
:1045100001E00023FB73FB7B18461437BD465DF8B2
:10452000047B704780B483B000AF78600B467B801B
:1045300013467B707B78002B03D07A887B689A6166
:1045400003E07B881A047B689A6100BF0C37BD4684
:104550005DF8047B7047000080B584B000AF7860E0
:104560007B68002B01D101232BE17B6893F83D3060
:10457000DBB2002B06D17B68002283F83C207868F0
:10458000FEF712FA7B68242283F83D207B681B68C3
:104590001A687B681B6822F001021A607B681B683E
:1045A0001A687B681B6842F400421A607B681B68CB
:1045B0001A687B681B6822F400421A6001F09AF8BE
:1045C000F8607B685B68814A934207D8FB68804A41
:1045D000934294BF01230023DBB206E0FB687D4ACF
:1045E000934294BF01230023DBB2002B01D00123AF
:1045F000E7E0FB68784AA2FB03239B0CBB607B6867
:104600001B685B6823F03F017B681B68BA680A433C
:104610005A607B681B681B6A23F03F017B685B68FC
:104620006A4A934202D8BB68013309E0BB684FF481
:10463000967202FB03F3694AA2FB03239B09013331
:104640007A6812680B4313627B681B68DB6923F48A
:104650004F4222F0FF027B685B685C498B4219D8AD
:10466000FB68591E7B685B685B00B1FBF3F3591C68
:1046700040F6FC730B40002B0AD0FB68591E7B6888
:104680005B685B00B1FBF3F30133C3F30B0351E051
:1046900004234FE07B689B68002B11D1FB68581EF8
:1046A0007B6859680B465B000B44B0FBF3F30133A6
:1046B000C3F30B03002B0CBF01230023DBB212E07A
:1046C000FB68581E7B6859680B469B000B44990099
:1046D0000B44B0FBF3F30133C3F30B03002B0CBF0C
:1046E00001230023DBB2002B01D0012322E07B68F1
:1046F0009B68002B0ED1FB68581E7B6859680B46DF
:104700005B000B44B0FBF3F30133C3F30B0343F43F
:1047100000430FE0FB68581E7B6859680B469B00FE
:104720000B4499000B44B0FBF3F30133C3F30B03C9
:1047300043F44043796809681343CB617B681B6885
:104740001B6823F0C0017B68DA697B681B6A1A4327
:104750007B681B680A431A607B681B689B6823F4AC
:10476000034323F0FF037A6811697A68D268114322
:104770007A6812680B4393607B681B68DB6823F0E0
:10478000FF017B685A697B689B691A437B681B68D9
:104790000A43DA607B681B681A687B681B6842F012
:1047A00001021A607B6800221A647B68202283F869
:1047B0003D207B6800221A637B68002283F83E203C
:1047C000002318461037BD4680BD00BFA0860100FB
:1047D0007F841E00FF083D0083DE1B43D34D621023
:1047E00080B588B002AFF8607A601A460B467B81CC
:1047F00013463B81FEF7B0FB7861FB6893F83D30D0
:10480000DBB2202B40F0E0807B690093192301226A
:104810007049F86800F064F90346002B01D00223C8
:10482000D3E0FB6893F83C30012B01D10223CCE0AC
:10483000FB68012283F83C20FB681B681B6803F0BF
:104840000103012B07D0FB681B681A68FB681B6813
:1048500042F001021A60FB681B681A68FB681B685B
:1048600022F400621A60FB68212283F83D20FB6875
:10487000102283F83E20FB6800221A64FB687A68E5
:104880005A62FB683A895A85FB685B8D9AB2FB686D
:104890001A85FB68504ADA6279897B693A6AF86856
:1048A00000F09CF80346002B01D001238DE000238B
:1048B0003B61FB681B685B693B61FB681B689B692C
:1048C0003B613B6966E07A69396AF86800F022FA70
:1048D0000346002B0DD0FB681B6C042B07D1FB6833
:1048E0001B681A68FB681B6842F400721A60012397
:1048F0006BE0FB685B6A1A78FB681B681A61FB68EF
:104900005B6A5A1CFB685A62FB685B8D9BB2013B79
:104910009AB2FB685A85FB681B8D013B9AB2FB6813
:104920001A85FB681B685B6903F00403042B1BD129
:10493000FB681B8D002B17D0FB685B6A1A78FB683D
:104940001B681A61FB685B6A5A1CFB685A62FB6849
:104950005B8D9BB2013B9AB2FB685A85FB681B8D4D
:10496000013B9AB2FB681A857A69396AF86800F0E7
:1049700019FA0346002B0DD0FB681B6C042B07D1E2
:10498000FB681B681A68FB681B6842F400721A60B7
:1049900001231AE0FB681B8D002B94D1FB681B6878
:1049A0001A68FB681B6842F400721A60FB682022D8
:1049B00083F83D20FB68002283F83E20FB6800223C
:1049C00083F83C20002300E0022318461837BD4638
:1049D00080BD00BF020010000000FFFF80B588B05E
:1049E00002AFF8607A603B600B467B81FB68DB6A54
:1049F0007B617B69082B06D07B69012B03D07B6927
:104A000013F5803F08D1FB681B681A68FB681B68B8
:104A100042F480721A600BE0FB681B6B122B07D10B
:104A2000FB681B681A68FB681B6842F480721A6096
:104A30003B6800937B6800224FF00111F86800F09A
:104A40004FF80346002B0DD0FB681B681B6803F46E
:104A50008073B3F5807F03D1FB684FF400721A6452
:104A6000032335E0FB681B69B3F5804F08D17B89D0
:104A7000DBB21A46FB681B6802F0FE021A611BE0FB
:104A80007B89DB11DBB203F00603DBB263F00F03BB
:104A9000DAB2FB681B681A613B687A680E49F868ED
:104AA00000F098F80346002B01D0012310E07B8929
:104AB000DAB2FB681B681A613B687A680749F868D4
:104AC00000F088F80346002B01D0012300E000230A
:104AD00018461837BD4680BD0800010002000100DD
:104AE00080B584B000AFF860B9603B601346FB71DD
:104AF00048E03B68B3F1FF3F44D0FEF72DFA024691
:104B0000BB69D31A3A689A4202D33B68002B39D169
:104B1000BB681B0CDBB2012B0DD1FB681B685B690A
:104B2000DA43BB6813409BB2002B0CBF0123002368
:104B3000DBB21A460CE0FB681B689B69DA43BB6872
:104B400013409BB2002B0CBF01230023DBB21A469B
:104B5000FB799A4216D1FB6800221A63FB68202277
:104B600083F83D20FB68002283F83E20FB681B6C25
:104B700043F02002FB681A64FB68002283F83C20A3
:104B8000012323E0BB681B0CDBB2012B0DD1FB68BA
:104B90001B685B69DA43BB6813409BB2002B0CBFF8
:104BA00001230023DBB21A460CE0FB681B689B69FB
:104BB000DA43BB6813409BB2002B0CBF01230023D8
:104BC000DBB21A46FB799A4293D00023184610377D
:104BD000BD4680BD80B584B000AFF860B9607A6032
:104BE0003B6071E0FB681B685B6903F48063B3F5AD
:104BF000806F23D1FB681B681A68FB681B6842F44E
:104C000000721A60FB681B686FF480625A61FB686F
:104C100000221A63FB68202283F83D20FB680022F3
:104C200083F83E20FB681B6C43F00402FB681A64A7
:104C3000FB68002283F83C20012367E07B68B3F126
:104C4000FF3F41D0FEF788F902463B68D31A7A68E5
:104C50009A4202D37B68002B36D1BB681B0CDBB2B7
:104C6000012B0CD1FB681B685B69DA43BB681340FE
:104C70009BB2002B14BF01230023DBB20BE0FB68C7
:104C80001B689B69DA43BB6813409BB2002B14BFBF
:104C900001230023DBB2002B16D0FB6800221A632D
:104CA000FB68202283F83D20FB68002283F83E2029
:104CB000FB681B6C43F02002FB681A64FB6800224F
:104CC00083F83C20012321E0BB681B0CDBB2012BE5
:104CD0000CD1FB681B685B69DA43BB6813409BB26D
:104CE000002B14BF01230023DBB20BE0FB681B6821
:104CF0009B69DA43BB6813409BB2002B14BF0123AE
:104D00000023DBB2002B7FF46DAF00231846103771
:104D1000BD4680BD80B584B000AFF860B9607A60F0
:104D200034E0F86800F086F80346002B01D0012338
:104D300034E0BB68B3F1FF3F28D0FEF70DF902461F
:104D40007B68D31ABA689A4202D3BB68002B1DD184
:104D5000FB681B685B6903F08003802B16D0FB683F
:104D600000221A63FB68202283F83D20FB680022A2
:104D700083F83E20FB681B6C43F02002FB681A643A
:104D8000FB68002283F83C20012307E0FB681B68D6
:104D90005B6903F08003802BC3D1002318461037D2
:104DA000BD4680BD80B584B000AFF860B9607A6060
:104DB00034E0F86800F03EF80346002B01D00123F0
:104DC00034E0BB68B3F1FF3F28D0FEF7C5F80246D8
:104DD0007B68D31ABA689A4202D3BB68002B1DD1F4
:104DE000FB681B685B6903F00403042B16D0FB68A7
:104DF00000221A63FB68202283F83D20FB68002212
:104E000083F83E20FB681B6C43F02002FB681A64A9
:104E1000FB68002283F83C20012307E0FB681B6845
:104E20005B6903F00403042BC3D100231846103739
:104E3000BD4680BD80B483B000AF78607B681B68DE
:104E40005B6903F48063B3F5806F1BD17B681B68DB
:104E50006FF480625A617B6800221A637B682022AB
:104E600083F83D207B68002283F83E207B681B6C22
:104E700043F004027B681A647B68002283F83C20BC
:104E8000012300E0002318460C37BD465DF8047B83
:104E90007047000080B586B000AF78607B68002B5B
:104EA00001D1012367E27B681B6803F00103002B3B
:104EB00075D0884B9B6803F00C03042B0CD0854BFA
:104EC0009B6803F00C03082B12D1824B5B6803F440
:104ED0008003B3F5800F0BD17E4B1B6803F40033C6
:104EE000002B5BD07B685B68002B57D1012342E22B
:104EF0007B685B68B3F5803F06D1764B1B68754ACB
:104F000043F4803313601DE07B685B68B3F5A02F2A
:104F10000CD1704B1B686F4A43F4802313606D4BB8
:104F20001B686C4A43F4803313600BE0694B1B68C9
:104F3000684A23F480331360664B1B68654A23F488
:104F4000802313607B685B68002B13D0FEF704F8A6
:104F5000386108E0FEF700F802463B69D31A642B7B
:104F600001D9032307E25B4B1B6803F40033002BDA
:104F7000F0D014E0FDF7F0FF386108E0FDF7ECFF3A
:104F800002463B69D31A642B01D90323F3E1514B49
:104F90001B6803F40033002BF0D100E000BF7B68F6
:104FA0001B6803F00203002B63D04A4B9B6803F09D
:104FB0000C03002B0BD0474B9B6803F00C03082B12
:104FC0001CD1444B5B6803F48003002B16D1414B8A
:104FD0001B6803F00203002B05D07B68DB68012B04
:104FE00001D00123C7E13B4B1B6823F0F8027B682B
:104FF0001B69DB00374913430B603AE07B68DB68D1
:10500000002B20D0344B01221A60FDF7A5FF386138
:1050100008E0FDF7A1FF02463B69D31A022B01D934
:105020000323A8E12B4B1B6803F00203002BF0D0F5
:10503000284B1B6823F0F8027B681B69DB002549BD
:1050400013430B6015E0244B00221A60FDF784FF28
:10505000386108E0FDF780FF02463B69D31A022B56
:1050600001D9032387E11B4B1B6803F00203002BCC
:10507000F0D17B681B6803F00803002B36D07B68F7
:105080005B69002B16D0154B01221A60FDF764FFF7
:10509000386108E0FDF760FF02463B69D31A022B36
:1050A00001D9032367E10B4B5B6F03F00203002B75
:1050B000F0D01BE0094B00221A60FDF74DFF38616C
:1050C0000EE0FDF749FF02463B69D31A022B07D9D0
:1050D000032350E10038024000004742800E47425F
:1050E000884B5B6F03F00203002BEAD17B681B68DF
:1050F00003F00403002B00F097800023FB75814B25
:105100001B6C03F08053002B0FD10023BB607D4B41
:105110001B6C7C4A43F0805313647A4B1B6C03F086
:105120008053BB60BB680123FB75774B1B6803F49E
:105130008073002B18D1744B1B68734A43F480733F
:105140001360FDF709FF386108E0FDF705FF02462F
:105150003B69D31A022B01D903230CE16A4B1B686C
:1051600003F48073002BF0D07B689B68012B06D181
:10517000644B1B6F634A43F0010313671CE07B68B9
:105180009B68052B0CD15F4B1B6F5E4A43F00403F9
:1051900013675C4B1B6F5B4A43F0010313670BE023
:1051A000584B1B6F574A23F001031367554B1B6F76
:1051B000544A23F0040313677B689B68002B15D0C7
:1051C000FDF7CAFE38610AE0FDF7C6FE02463B69FC
:1051D000D31A41F28832934201D90323CBE0494BE1
:1051E0001B6F03F00203002BEED014E0FDF7B4FEBA
:1051F00038610AE0FDF7B0FE02463B69D31A41F27E
:105200008832934201D90323B5E03E4B1B6F03F074
:105210000203002BEED1FB7D012B05D1394B1B6C1A
:10522000384A23F0805313647B689B69002B00F09D
:10523000A180344B9B6803F00C03082B5CD07B6887
:105240009B69022B41D1314B00221A60FDF784FE8D
:10525000386108E0FDF780FE02463B69D31A022B55
:1052600001D9032387E0274B1B6803F00073002B51
:10527000F0D17B68DA697B681B6A1A437B685B6ADA
:105280009B011A437B689B6A5B08013B1B041A4322
:105290007B68DB6A1B061B4913434B601B4B0122D7
:1052A0001A60FDF759FE386108E0FDF755FE024629
:1052B0003B69D31A022B01D903235CE0114B1B6815
:1052C00003F00073002BF0D054E0104B00221A6062
:1052D000FDF742FE386108E0FDF73EFE02463B69FD
:1052E000D31A022B01D9032345E0064B1B6803F0B8
:1052F0000073002BF0D13DE07B689B69012B07D147
:10530000012338E00038024000700040600047424E
:105310001B4B5B68FB607B689B69012B28D0FB689B
:1053200003F480027B68DB699A4221D1FB6803F0B9
:105330003F027B681B6A9A421AD1FA6847F6C0732B
:1053400013407A68526A9201934211D1FB6803F4C8
:1053500040327B689B6A5B08013B1B049A4207D181
:10536000FB6803F070627B68DB6A1B069A4201D01F
:10537000012300E0002318461837BD4680BD00BF5A
:105380000038024080B584B000AF786039607B6837
:10539000002B01D10123CCE0684B1B6803F007030D
:1053A0003A689A420CD9654B3A68D2B21A70634B8C
:1053B0001B6803F007033A689A4201D00123B8E062
:1053C0007B681B6803F00203002B20D07B681B68FE
:1053D00003F00403002B05D0594B9B68584A43F453
:1053E000E05393607B681B6803F00803002B05D033
:1053F000534B9B68524A43F460439360504B9B6805
:1054000023F0F0027B689B684D4913438B607B68F7
:105410001B6803F00103002B44D07B685B68012B01
:1054200007D1474B1B6803F40033002B19D101232C
:105430007FE07B685B68022B03D07B685B68032B93
:1054400007D13F4B1B6803F00073002B09D10123E8
:105450006FE03B4B1B6803F00203002B01D10123DB
:1054600067E0374B9B6823F003027B685B68344935
:1054700013438B60FDF770FDF8600AE0FDF76CFDEB
:105480000246FB68D31A41F28832934201D90323C2
:105490004FE02B4B9B6803F00C027B685B689B0022
:1054A0009A42EBD1254B1B6803F007033A689A42F6
:1054B0000CD2224B3A68D2B21A70204B1B6803F010
:1054C00007033A689A4201D0012332E07B681B68E7
:1054D00003F00403002B08D0194B9B6823F4E0521F
:1054E0007B68DB68164913438B607B681B6803F09D
:1054F0000803002B09D0124B9B6823F460427B68A1
:105500001B69DB000E4913438B6000F021F8024653
:105510000B4B9B681B0903F00F030A49CB5C22FA73
:1055200003F3094A1360094B1B681846FDF7D0FCCA
:10553000002318461037BD4680BD00BF003C024026
:105540000038024070BB00080C0000201000002052
:105550002DE9B04F90B000AF00237B630023FB63C5
:1055600000233B630023BB63594B9B6803F00C0390
:10557000082B0DD0082B00F2A180002B02D0042BA9
:1055800003D09BE0534BBB639BE0534BBB6398E062
:105590004F4B5B6803F03F037B634D4B5B6803F449
:1055A0008003002B28D04A4B5B689B0900223B629A
:1055B0007A623B6AC3F308000021474B03FB01F208
:1055C000002300FB03F31344434AA0FB0212FA62D8
:1055D0000A46BA62FA6A1344FB627B6B0022BB6123
:1055E000FA61D7E90623D7E90A01FBF735FB024642
:1055F0000B461346FB6353E0354B5B689B09002267
:105600003B617A613B69C3F3080A4FF0000B5246D5
:105610005B464FF000004FF00001590141EAD261B2
:10562000500102460B46B2EB0A0863EB0B094FF040
:1056300000024FF000034FEA891343EA98634FEAF0
:105640008812B2EB080463EB09054FF000024FF03B
:105650000003EB0043EA5473E20014461D4614EBCA
:105660000A033B6045EB0B037B604FF000024FF0F9
:105670000003D7E9004529468B02214643EA9153AE
:1056800021468A02104619467B6B0022BB60FA60F5
:10569000D7E90223FBF7E0FA02460B461346FB6309
:1056A0000B4B5B681B0C03F0030301335B003B6394
:1056B000FA6B3B6BB2FBF3F3BB6302E0054BBB63DE
:1056C00000BFBB6B18464037BD46BDE8B08F00BF7A
:1056D000003802400024F40040787D0180B400AF1F
:1056E000034B1B681846BD465DF8047B704700BF3E
:1056F0000C00002080B500AFFFF7F0FF0246054B1D
:105700009B689B0A03F007030349CB5C22FA03F36F
:10571000184680BD0038024080BB000880B500AF4D
:10572000FFF7DCFF0246054B9B685B0B03F00703AA
:105730000349CB5C22FA03F3184680BD00380240CF
:1057400080BB000880B582B000AF78607B68002B1A
:1057500001D1012342E07B6893F84130DBB2002B9A
:1057600006D17B68002283F840207868FDF764F951
:105770007B68242283F841207B681B68DA687B6899
:105780001B6822F40052DA60786800F0A1FF7B68A1
:105790001B681A697B681B6822F490421A617B6857
:1057A0001B685A697B681B6822F02A025A617B6871
:1057B0001B68DA687B681B6842F40052DA607B6819
:1057C00000225A647B68202283F841207B682022D3
:1057D00083F842207B6800225A630023184608376A
:1057E000BD4680BD80B58AB002AFF860B9603B604D
:1057F0001346FB8000237B61FB6893F84130DBB2EA
:10580000202B75D1BB68002B02D0FB88002B01D167
:1058100001236EE0FB6800225A64FB68212283F8B2
:105820004120FDF799FB7861FB68FA889A84FB6850
:10583000FA88DA84FB689B68B3F5805F08D1FB685F
:105840001B69002B04D10023FB61BB68BB6103E033
:10585000BB68FB610023BB612EE03B6800937B6962
:1058600000228021F86800F071FC0346002B05D06F
:10587000FB68202283F8412003233AE0FB69002BD8
:105880000BD1BB691B881A46FB681B68C2F3080270
:105890005A60BB690233BB6107E0FB691A78FB6899
:1058A0001B685A60FB690133FB61FB68DB8C9BB2B0
:1058B000013B9AB2FB68DA84FB68DB8C9BB2002B5D
:1058C000CBD13B6800937B6900224021F86800F04F
:1058D0003DFC0346002B05D0FB68202283F84120C5
:1058E000032306E0FB68202283F84120002300E028
:1058F000022318462037BD4680BD80B58CB000AF6E
:10590000F860B9601346FB80FB6893F84230DBB265
:10591000202B46D1BB68002B02D0FB88002B01D185
:1059200001233FE0FB6801221A63FB6800225A63EF
:10593000FB881A46B968F86800F062FC034687F8ED
:105940002F30FB681B6B012B25D100233B61FB68CB
:105950001B681B683B61FB681B685B683B613B69BC
:10596000FB681B680C33BB61BB6953E8003F7B617C
:105970007B6943F01003BB62FB681B680C33BA6A97
:105980007A623B62396A7A6A41E80023FB61FB690B
:10599000002BE5D102E0012387F82F3097F82F3054
:1059A00000E0022318463037BD4680BD80B5BAB04E
:1059B00000AF78607B681B681B68C7F8E4307B68C1
:1059C0001B68DB68C7F8E0307B681B685B69C7F859
:1059D000DC300023C7F8D8300023C7F8D430D7F81C
:1059E000E43003F00F03C7F8D830D7F8D830002BD5
:1059F0000FD1D7F8E43003F02003002B09D0D7F8FB
:105A0000E03003F02003002B03D0786800F0A2FD03
:105A100073E2D7F8D830002B00F0DE80D7F8DC3006
:105A200003F00103002B06D1D7F8E03003F49073A4
:105A3000002B00F0D180D7F8E43003F00103002BF5
:105A40000BD0D7F8E03003F48073002B05D07B68CF
:105A50005B6C43F001027B685A64D7F8E43003F0D2
:105A60000403002B0BD0D7F8DC3003F00103002B2C
:105A700005D07B685B6C43F002027B685A64D7F800
:105A8000E43003F00203002B0BD0D7F8DC3003F036
:105A90000103002B05D07B685B6C43F004027B683C
:105AA0005A64D7F8E43003F00803002B11D0D7F87C
:105AB000E03003F02003002B05D1D7F8DC3003F0F1
:105AC0000103002B05D07B685B6C43F008027B6808
:105AD0005A647B685B6C002B00F00A82D7F8E430D4
